:020000040800F2
:1000000000500020B9150008B5110008B71100080C
:10001000B9110008BB110008BD1100080000000064
:10002000000000000000000000000000BF110008F8
:10003000C111000800000000C3110008C51100082C
:100040000116000801160008011600080116000834
:100050000116000801160008011600080116000824
:10006000011600080116000801160008CD1100084D
:10007000DD110008ED110008FD1100080D12000847
:1000800001160008011600080116000801160008F4
:100090001D120008011600080116000801160008CC
:1000A00001160008011600080116000801160008D4
:1000B0002D1200080116000801160008011600089C
:1000C00001160008011600080116000801160008B4
:1000D00001160008011600080116000801160008A4
:1000E00001160008011600080116000800000000B3
:1000F0000000000000000000000000000000000000
:0C01000000000000000000005FF808F1A3
:10011000844641EA000313F0030349D1403A23D354
:100120000B6803604B6843608B688360CB68C36077
:100130000B6903614B6943618B698361CB69C3615F
:100140000B6A03624B6A43628B6A8362CB6AC36247
:100150000B6B03634B6B43638B6B8363CB6BC3632F
:1001600040304031403ADBD230320BD30B68036071
:100170004B6843608B688360CB68C360103010317C
:10018000103AF3D20C3205D351F8043B40F8043B4B
:10019000043AF9D2043208D0D2071CBF11F8013B4F
:1001A00000F8013B01D30B8803806046704700BF15
:1001B000082A13D38B07B1D010F00303AED0C3F1DC
:1001C0000403D21ADB071CBF11F8013B00F8013B06
:1001D000A4D331F8023B20F8023B9FE7043AD9D37D
:1001E000013A11F8013B00F8013BF9D20B7803709A
:1001F0004B7843708B7883706046704781F0004184
:1002000002E000BF83F0004330B54FEA41044FEAFB
:10021000430594EA050F08BF90EA020F1FBF54EA96
:10022000000C55EA020C7FEA645C7FEA655C00F032
:10023000E2804FEA5454D4EB5555B8BF6D420CDD03
:100240002C4480EA020281EA030382EA000083EA86
:10025000010180EA020281EA0303362D88BF30BD26
:1002600011F0004F4FEA01314FF4801C4CEA11317C
:1002700002D0404261EB410113F0004F4FEA0333DB
:100280004CEA133302D0524263EB430394EA050F66
:1002900000F0A780A4F10104D5F1200E0DDB02FAD5
:1002A0000EFC22FA05F2801841F1000103FA0EF269
:1002B000801843FA05F359410EE0A5F120050EF12F
:1002C000200E012A03FA0EFC28BF4CF0020C43FA60
:1002D00005F3C01851EBE37101F0004507D54FF06D
:1002E000000EDCF1000C7EEB00006EEB0101B1F5BD
:1002F000801F1BD3B1F5001F0CD349085FEA300003
:100300004FEA3C0C04F101044FEA445212F5800F0D
:1003100080F09A80BCF1004F08BF5FEA500C50F1AA
:10032000000041EB045141EA050130BD5FEA4C0C8D
:10033000404141EB0101013C28BFB1F5801FE9D2EA
:1003400091F0000F04BF01460020B1FA81F308BF0D
:100350002033A3F10B03B3F120020CDA0C3208DDD9
:1003600002F1140CC2F10C0201FA0CF021FA02F1B4
:100370000CE002F11402D8BFC2F1200C01FA02F124
:1003800020FA0CFCDCBF41EA0C019040E41AA2BF49
:1003900001EB0451294330BD6FEA04041F3C1CDA11
:1003A0000C340EDC04F11404C4F1200220FA04F031
:1003B00001FA02F340EA030021FA04F345EA0301DB
:1003C00030BDC4F10C04C4F1200220FA02F001FA9D
:1003D00004F340EA0300294630BD21FA04F029461F
:1003E00030BD94F0000F83F4801306BF81F48011B8
:1003F0000134013D4EE77FEA645C18BF7FEA655C2B
:1004000029D094EA050F08BF90EA020F05D054EAFC
:10041000000C04BF1946104630BD91EA030F1EBF01
:100420000021002030BD5FEA545C05D14000494105
:1004300028BF41F0004130BD14F580043CBF01F5F8
:10044000801130BD01F0004545F0FE4141F47001DE
:100450004FF0000030BD7FEA645C1ABF19461046B9
:100460007FEA655C1CBF0B46024650EA013406BFBA
:1004700052EA033591EA030F41F4002130BD00BF79
:1004800090F0000F04BF0021704730B54FF4806436
:1004900004F132044FF000054FF0000150E700BFB7
:1004A00090F0000F04BF0021704730B54FF4806416
:1004B00004F1320410F0004548BF40424FF0000103
:1004C0003EE700BF42004FEAE2014FEA31014FEA46
:1004D00002701FBF12F07F4393F07F4F81F0605195
:1004E000704732F07F4208BF704793F07F4F04BFE0
:1004F00041F40021704730B54FF4607401F00045BD
:1005000021F000411CE700BF50EA010208BF70471C
:1005100030B54FF000050AE050EA010208BF70470D
:1005200030B511F0004502D5404261EB41014FF476
:10053000806404F132045FEA915C3FF4D8AE4FF07E
:1005400003025FEADC0C18BF03325FEADC0C18BF61
:10055000033202EBDC02C2F1200300FA03FC20FAB2
:1005600002F001FA03FE40EA0E0021FA02F11444FF
:10057000BDE600BF70B54FF0FF0C4CF4E06C1CEA18
:1005800011541DBF1CEA135594EA0C0F95EA0C0F89
:1005900000F0DEF82C4481EA030621EA4C5123EAFC
:1005A0004C5350EA013518BF52EA033541F480112B
:1005B00043F4801338D0A0FB02CE4FF00005E1FBDE
:1005C00002E506F00042E0FB03E54FF00006E1FB28
:1005D00003569CF0000F18BF4EF0010EA4F1FF046B
:1005E000B6F5007F64F5407404D25FEA4E0E6D41AB
:1005F00046EB060642EAC62141EA55514FEAC520BC
:1006000040EA5E504FEACE2EB4F1FD0C88BFBCF537
:10061000E06F1ED8BEF1004F08BF5FEA500E50F1E8
:10062000000041EB045170BD06F0004646EA0101AE
:1006300040EA020081EA0301B4EB5C04C2BFD4EBE0
:100640000C0541EA045170BD41F480114FF0000ED9
:10065000013C00F3AB8014F1360FDEBF002001F047
:10066000004170BDC4F10004203C35DA0C341BDCC1
:1006700004F11404C4F1200500FA05F320FA04F093
:1006800001FA05F240EA020001F0004221F00041C7
:1006900010EBD37021FA04F642EB06015EEA430E3A
:1006A00008BF20EAD37070BDC4F10C04C4F120056A
:1006B00000FA04F320FA05F001FA04F240EA02001D
:1006C00001F0004110EBD37041F100015EEA430EEE
:1006D00008BF20EAD37070BDC4F1200500FA05F20E
:1006E0004EEA020E20FA04F301FA05F243EA02038D
:1006F00021FA04F001F0004121FA04F220EA02009C
:1007000000EBD3705EEA430E08BF20EAD37070BDE1
:1007100094F0000F0FD101F00046400041EB0101C1
:1007200011F4801F08BF013CF7D041EA060195F0A3
:10073000000F18BF704703F00046520043EB03035D
:1007400013F4801F08BF013DF7D043EA060370474A
:1007500094EA0C0F0CEA135518BF95EA0C0F0CD055
:1007600050EA410618BF52EA4306D1D181EA03019B
:1007700001F000414FF0000070BD50EA410606BF95
:100780001046194652EA430619D094EA0C0F02D1DA
:1007900050EA013613D195EA0C0F05D152EA03361F
:1007A0001CBF104619460AD181EA030101F000413D
:1007B00041F0FE4141F470014FF0000070BD41F086
:1007C000FE4141F4780170BD70B54FF0FF0C4CF460
:1007D000E06C1CEA11541DBF1CEA135594EA0C0F7F
:1007E00095EA0C0F00F0A7F8A4EB050481EA030ECC
:1007F00052EA03354FEA013100F088804FEA0333B3
:100800004FF0805545EA131343EA12634FEA022280
:1008100045EA111545EA10654FEA00260EF0004141
:100820009D4208BF964244F1FD0404F5407402D293
:100830005B084FEA3202B61A65EB03055B084FEA24
:1008400032024FF480104FF4002CB6EB020E75EB21
:10085000030E22BFB61A754640EA0C005B084FEA49
:100860003202B6EB020E75EB030E22BFB61A7546C6
:1008700040EA5C005B084FEA3202B6EB020E75EB11
:10088000030E22BFB61A754640EA9C005B084FEA89
:100890003202B6EB020E75EB030E22BFB61A754696
:1008A00040EADC0055EA060E18D04FEA051545EA85
:1008B00016754FEA06164FEAC30343EA52734FEA2E
:1008C000C2025FEA1C1CC0D111F4801F0BD141EAA7
:1008D00000014FF000004FF0004CB6E711F4801F0C
:1008E00004BF01430020B4F1FD0C88BFBCF5E06FEC
:1008F0003FF6AFAEB5EB030C04BFB6EB020C5FEAFC
:10090000500C50F1000041EB045170BD0EF0004E50
:100910004EEA113114EB5C04C2BFD4EB0C0541EA82
:10092000045170BD41F480114FF0000E013C90E67F
:1009300045EA060E8DE60CEA135594EA0C0F08BF43
:1009400095EA0C0F3FF43BAF94EA0C0F0AD150EA42
:1009500001347FF434AF95EA0C0F7FF425AF1046D5
:1009600019462CE795EA0C0F06D152EA03353FF4FD
:10097000FDAE1046194622E750EA410618BF52EA7A
:1009800043067FF4C5AE50EA41047FF40DAF52EA4E
:1009900043057FF4EBAE12E74FF0FF3C06E000BFEB
:1009A0004FF0010C02E000BF4FF0010C4DF804CDF8
:1009B0004FEA410C7FEA6C5C4FEA430C18BF7FEAB8
:1009C0006C5C1BD001B050EA410C0CBF52EA430CE6
:1009D00091EA030F02BF90EA020F0020704710F166
:1009E000000F91EA030F58BF994208BF90422CBFF5
:1009F000D8176FEAE37040F0010070474FEA410CEE
:100A00007FEA6C5C02D150EA013C07D14FEA430C0B
:100A10007FEA6C5CD6D152EA033CD3D05DF8040B7C
:100A2000704700BF8446104662468C4619466346AE
:100A300000E000BF01B5FFF7B7FF002848BF10F185
:100A4000000F01BD4DF808EDFFF7F4FF0CBF0120CA
:100A500000205DF808FB00BF4DF808EDFFF7EAFF46
:100A600034BF012000205DF808FB00BF4DF808ED01
:100A7000FFF7E0FF94BF012000205DF808FB00BFF6
:100A80004DF808EDFFF7CEFF94BF012000205DF880
:100A900008FB00BF4DF808EDFFF7C4FF34BF01208D
:100AA00000205DF808FB00BF4FEA410C7FEA6C5C58
:100AB00002D150EA013C0AD14FEA430C7FEA6C5C58
:100AC00002D152EA033C02D14FF0000070474FF0D0
:100AD000010070474FEA410212F5001215D211D5FC
:100AE0006FF47873B3EB625212D94FEAC12343F02B
:100AF000004343EA505311F0004F23FA02F018BFAD
:100B0000404270474FF00000704750EA013005D175
:100B100011F0004008BF6FF0004070474FF0000038
:100B2000704700BF10B5054C237833B9044B13B19F
:100B30000448AFF300800123237010BDB0160020DD
:100B400000000000F4C1000808B5034B1BB10349C5
:100B50000348AFF3008008BD00000000B416002079
:100B6000F4C1000800B585B00023019302930393FC
:100B70002448254A02604FF4807282600373037533
:100B80004FF46022C26143600423036100F06AFFF6
:100B900040BB0023019301220292039301A919484B
:100BA00000F0B8FD08BB012301930223029301A9C1
:100BB000144800F0AFFDD8B9022301930323029338
:100BC00001A9104800F0A6FDA8B90323019304234E
:100BD00002930DEB03010B4800F09CFD70B905B0CA
:100BE0005DF804FB00F04AFAD3E700F047FADAE7D1
:100BF00000F044FAE0E700F041FAE6E700F03EFAE0
:100C0000EDE700BF101700200024014010B586B0AA
:100C10000023029303930493059302681E4B9A42A8
:100C200001D006B010BD044603F56C439A6942F446
:100C300000729A619A6902F400720092009A9A69AD
:100C400042F004029A619B6903F004030193019B43
:100C50000F2302930323039302A9104801F0CCF958
:100C60000F48104B03600023436083608022C26002
:100C70004FF4807202614FF48062426120228261EF
:100C8000C36101F0A7F818B9054B23625C62C8E79D
:100C900000F0F4F9F8E700BF00240140000801402B
:100CA000CC1600200800024008B50548054B03603B
:100CB00001F06AF800B908BD00F0E0F9FBE700BFF9
:100CC00040170020003002400268094B9A4200D0D1
:100CD000704782B0A3F500535A6942F040025A614E
:100CE0005B6903F040030193019B02B0704700BFB2
:100CF0000030024000B583B01A4B5A6942F001023D
:100D00005A615B6903F001030193019B00221146C4
:100D10000B2001F003F80B2001F010F8002211461F
:100D20000C2000F0FBFF0C2001F008F80022114617
:100D30000D2000F0F3FF0D2001F000F80022114615
:100D40000E2000F0EBFF0E2000F0F8FF002211460D
:100D50000F2000F0E3FF0F2000F0F0FF03B05DF87C
:100D600004FB00BF0010024030B589B00024049499
:100D70000594069407941D4B9A6942F010029A61FB
:100D80009A6902F010020092009A9A6942F02002D9
:100D90009A619A6902F020020192019A9A6942F0DE
:100DA00004029A619A6902F004020292029A9A6914
:100DB00042F008029A619B6903F008030393039BC6
:100DC0000B4D22464FF40051284601F023FA4FF410
:100DD000005304930123059306940223079304A967
:100DE000284601F009F909B030BD00BF00100240EB
:100DF00000100140054A536943F04003536102F576
:100E00000052936843F00103936070470010024062
:100E100008B5FFF7EFFF124B01229A60002305E0AF
:100E2000104AD15C0E4A11600133DBB2A12BF7D915
:100E30000B4B1A680B4BC3F8A2200B4B1B784BB122
:100E40006423A6220749094803F0F7F8064B00225D
:100E50001A7008BD9A220021054805F0C7FAEFE78D
:100E600000300240E41700209C180020FC190020EC
:100E7000EC17002008B5094B984203D0084B984264
:100E800009D008BD9A2207490748FFF741F9074BE7
:100E900001221A70F5E700F05FFFF2E7401A002028
:100EA000FC19002048170020EC1700209C18002097
:100EB0002DE9F04FA3B05C4B1B8840F65E229342B5
:100EC00071D95A4B4FF6FF721A80574B5B8840F628
:100ED0005E22934277D9554B4FF6FF725A80524BA0
:100EE0009B8840F65E2293427DD9504B4FF6FF72AD
:100EF0009A804D4BDB8840F65E22934240F283801D
:100F00004A4B4FF6FF72DA80494C94F801E02278A0
:100F10000C92E578A3780D9394F8059094F80480EA
:100F200094F807B094F806A0637A0E93267AE07AD4
:100F3000A77A94F80DC0237B0F93E37BA27B217CDF
:100F40000A91099208930F9B07934FEA0C2CCDF856
:100F500018C005970002049003960E9B1902029197
:100F60004AEA0B21019148EA092100910D9B43EACD
:100F700005230C9A42EA0E222E4910A805F088FAA1
:100F800081B210A805F01CF8284B93E8030084E810
:100F900003004FF40051284801F042F9FFF738FFF1
:100FA00023B0BDE8F08F40F2A242934203D81F4B1A
:100FB00000221A8089E7A3F2A343204A32F81320C3
:100FC0001A4B1A8081E740F2A242934203D8174B92
:100FD00000225A8083E7A3F2A343184A32F8132071
:100FE000124B5A807BE740F2A242934203D80F4B48
:100FF00000229A807DE7A3F2A343104A32F813201F
:101000000A4B9A8075E740F2A242934203D8074BFD
:101010000022DA8078E7A3F2A343084A32F81320CB
:10102000024BDA8070E700BF941800208C18002073
:10103000E417002010C2000800100140000000204A
:1010400010B504220849094800F048FC084C642304
:101050000A220849204602F0F0FF9A22064920465B
:1010600003F0FEF810BD00BF9418002010170020F8
:10107000401A0020780B00204817002072B6FEE7C7
:1010800000B595B0282200210DEB020005F0AEF965
:101090000023059306930793089309930193029302
:1010A0000393049301220A924FF480330B930E9220
:1010B0000222119212934FF4E01313930AA802F044
:1010C00089F8D8B90F2305930221069100230793CD
:1010D0004FF480620892099305A802F0BBFA78B930
:1010E000122301934FF4004303930023049301A8B8
:1010F00002F08CFB30B915B05DF804FBFFF7BEFFC2
:10110000FFF7BCFFFFF7BAFF08B500F0A1FAFFF741
:10111000B7FFFFF729FEFFF7EDFD00F045F9FFF7F8
:1011200021FD00F05BF904F0FBFE00F0E7F8FFF7AB
:10113000BBFD0024094B1C70094800F017FD224636
:101140004FF40051074801F065F8074802F098FC99
:1011500001222146054803F083F8FEE79C18002091
:101160001017002000100140A4180020FC190020D6
:1011700082B00E4B9A6942F001029A619A6902F0BC
:1011800001020092009ADA6942F08052DA61DB696A
:1011900003F080530193019B054A536823F0E063F9
:1011A00043F00073536002B0704700BF001002406C
:1011B00000000140FEE7FEE7FEE7FEE7FEE77047BE
:1011C0007047704708B500F055FA08BD08B50248E9
:1011D00000F070FE08BD00BFCC16002008B5024824
:1011E00000F068FE08BD00BFEC18002008B50248FA
:1011F00000F060FE08BD00BF3019002008B50248AD
:1012000000F058FE08BD00BF7419002008B5024860
:1012100000F050FE08BD00BFB819002008B5024814
:1012200001F07EFD08BD00BF4029002008B502483E
:1012300002F05EFC08BD00BFA4180020012070472A
:1012400008B505F093F8162303604FF0FF3008BD92
:1012500008B54FF0FF31FFF7F3FFFEE770B50C461E
:101260001646002506E0AFF30080214601F8010B89
:1012700001350C46B542F6DB304670BD70B50C4604
:101280001646002504E014F8010BAFF30080013589
:10129000B542F8DB304670BD4FF0FF3070474FF479
:1012A00000534B60002070470120704700207047BA
:1012B00010B503460C4A0D490D48006840B10C4872
:1012C00000680344521A934206D8094A136010BDBD
:1012D0000748084C0460F2E705F048F80C23036067
:1012E0004FF0FF30F3E700BF005000200004000083
:1012F000A0180020782C00207047000000B587B0AF
:1013000000230293039304930593009301931648DB
:101310004FF08042026042F21072426083604FF4EC
:10132000E152C2600361836102F0DAFC90B94FF4CC
:101330008053029302A90C4802F00AFD68B9002309
:10134000009301936946084802F070FD40B907B068
:101350005DF804FBFFF792FEE9E7FFF78FFEEEE78B
:10136000FFF78CFEF3E700BFA41800200368B3F179
:10137000804F00D0704700B583B003F50433DA69BD
:1013800042F00102DA61DB6903F001030193019B82
:10139000002211461C2000F0C1FC1C2000F0CEFCF5
:1013A00003B05DF804FB000008B50A480A4B03606F
:1013B0004FF49643436000238360C36003610C22B3
:1013C00042618361C36102F009FE00B908BDFFF705
:1013D00055FEFBE7401A00200038014008B50A48D6
:1013E0000A4B03604FF4E133436000238360C36022
:1013F00003610C2242618361C36102F0EFFD00B919
:1014000008BDFFF73BFEFBE7FC1900200048004049
:1014100070B588B0044600230493059306930793A0
:101420000368584A934204D0574A934255D008B0B3
:1014300070BD564B9A6942F480429A619A6902F4EF
:1014400080420092009A9A6942F004029A619B6974
:1014500003F004030193019B4FF4007304930223F0
:101460000593032307934A4E04A9304600F0C4FDB8
:101470004FF48063049300250595069504A9304632
:1014800000F0BAFD4348444B03604560856080230B
:10149000C360056145618561C56100F09BFCB0B921
:1014A0003C4BA3635C623D483D4B036010234360AB
:1014B000002383608022C260036143618361C36152
:1014C00000F088FC30B9354B63635C62AFE7FFF72F
:1014D000D5FDE5E7FFF7D2FDF5E72C4BDA6942F4DD
:1014E0008022DA61DA6902F480220292029A9A6911
:1014F00042F008029A619B6903F008030393039B7F
:101500004FF4806304930223059303230793254E2E
:1015100004A9304600F070FD4FF4006304930025E9
:101520000595069504A9304600F066FD1E481F4B40
:101530000360456085608023C36005614561856106
:10154000C56100F047FCB0B9174BA3635C62184853
:10155000184B036010234360002383608022C26025
:10156000036143618361C36100F034FC30B9104B07
:1015700063635C625BE7FFF781FDE5E7FFF77EFDF4
:10158000F5E700BF0038014000480040001002406D
:1015900000080140B81900205800024074190020CA
:1015A00044000240000C014030190020300002408D
:1015B000EC1800201C0002400C480D490D4A002385
:1015C00002E0D458C4500433C4188C42F9D30A4AF8
:1015D0000A4C002301E013600432A242FBD3FFF760
:1015E0008BFE04F0DFFEFFF78FFD70470000002048
:1015F000B01600205CC60008B0160020742C002035
:10160000FEE7000010B504460E4B1A784FF47A73CB
:10161000B3FBF2F30C4A1068B0FBF3F000F0A0FB50
:1016200068B90F2C01D901200AE0002221464FF0B1
:10163000FF3000F073FB054B1C60002000E0012030
:1016400010BD00BF880B0020840B00208C0B0020F5
:1016500008B5074A136843F010031360032000F035
:101660004BFB0F20FFF7CEFFFFF782FD002008BDE8
:1016700000200240034A1168034B1B780B4413609F
:10168000704700BF841A0020880B0020014B1868A7
:10169000704700BF841A002008B5436A9A6A12F0A6
:1016A000500F1ED19A6A42F400729A621A689268C8
:1016B00002F46022B2F5602F03D01846FFF7F8FB62
:1016C00008BD1A7B002AF8D19A6A22F480729A62C5
:1016D0009A6A12F4805FF0D19A6A42F001029A622B
:1016E000EBE71B6A1B6B9847EAE7704708B5406A4F
:1016F000FFF7FBFF08BD704708B5406A836A43F0F7
:1017000040038362C36A43F00403C362FFF7F3FF3D
:1017100008BD000030B482B00022019290F824206D
:10172000012A00F08F800346012280F824204A68B5
:10173000062A2DD80468606B02EB8202053A4FF04E
:101740001F0C0CFA02FC20EA0C000D6805FA02F2EC
:10175000024362630A68092A38D91C68E06802EB10
:1017600042021E3A4FF0070C0CFA02FC20EA0C0071
:101770008D6805FA02F20243E2600A68103A012A13
:1017800034D90020002283F8242002B030BC7047F6
:101790000C2A0DD80568286B02EB8202233A1F241D
:1017A000944020EA04000C68944020432863D1E769
:1017B0000568E86A02EB8202413A1F24944020EA5D
:1017C00004000C6894402043E862C3E71C68206969
:1017D00002EB42024FF0070C0CFA02FC20EA0C006C
:1017E0008D6805FA02F202432261C6E71A681648BC
:1017F000824205D09A6A42F020029A620120C1E733
:10180000906810F4000F1BD1906840F400009060C5
:101810000A68102A01D00020B4E70C4A12680C496B
:10182000A1FB0212920C02EB82025200019202E032
:10183000019A013A0192019A002AF9D10020A1E708
:1018400000209FE70220A0E700240140840B002035
:1018500083DE1B4330B583B00023019303689A688D
:1018600012F0010F33D104469A6842F001029A60E7
:10187000184B1B68184AA2FB03239B0C019302E040
:10188000019B013B0193019B002BF9D1FFF7FEFE69
:10189000054623689B6813F0010F16D1FFF7F6FE8B
:1018A000431B022BF5D923689B6813F0010FF0D17D
:1018B000A36A43F01003A362E36A43F00103E36207
:1018C000002384F82430012002E0002000E0002002
:1018D00003B030BD840B002083DE1B43F8B5044603
:1018E0000D46164601684448814259D0434B9942FF
:1018F00056D094F82430012B7CD0012384F8243076
:101900002046FFF7A7FF074600286ED1A16A21F401
:10191000706121F0010141F48071A1622268374BAE
:101920009A4244D0A36A23F48013A362536813F449
:10193000806F05D0A36A23F4405343F48053A3621D
:10194000A36A13F4805F48D0E36A23F00603E362DE
:10195000002384F82430236A294A9A62236A294A98
:10196000DA62236A284A1A6323686FF002021A6057
:101970002268936843F480739360216833462A4653
:101980004C31206A00F05CFA23689A6802F4602205
:10199000B2F5602F24D09A6842F480129A6027E052
:1019A000154B5B6813F4702FA3D0012720E0A3F53B
:1019B00080635B6813F4702FB4D0A36A43F4801380
:1019C000A3620D4B5B6813F4806FB9D0A36A23F454
:1019D000405343F48053A362B2E70023E362B7E7C6
:1019E0009A6842F4A0029A6002E0002384F824304E
:1019F0003846F8BD0227FBE70024014000280140DB
:101A000099160008ED160008F916000838B50368A5
:101A10009A6812F0010F01D1002038BD04469A687F
:101A200022F001029A60FFF731FE054623689B68A9
:101A300013F0010F13D0FFF729FE431B022BF5D93A
:101A400023689B6813F0010FF0D0A36A43F01003E2
:101A5000A362E36A43F00103E3620120DDE70020B3
:101A6000DBE7000000287BD070B50446836A002BBA
:101A70004DD02046FFF7CAFFA36A13F0100369D1C7
:101A8000002867D1A26A22F4885222F0020242F0B2
:101A90000202A2626268E1690A43217B42EA4102D2
:101AA000A568B5F5807F02D0012D36D01D46267D74
:101AB000012E35D02668716821F46941294371608F
:101AC0002568AE68274931401143A960A168B1F586
:101AD000807F01D0012902D12369013B1B052568C4
:101AE000E96A21F470010B43EB62236899681E4B8D
:101AF0000B409A4225D0A36A23F0120343F010034F
:101B0000A362E36A43F00103E362012027E0C362BA
:101B100080F82430FFF77AF8ABE74FF48075C6E71A
:101B200031B9A169013945EA413141F40065C1E7A4
:101B3000A16A41F02001A162E16A41F00101E16284
:101B4000B8E70023E362A36A23F0030343F0010331
:101B5000A36204E0A36A43F01003A362012070BDF6
:101B600001207047FDF7E1FFFE0E1FFF70B582B048
:101B70000023019390F82430012B72D004460123F6
:101B800080F82430FFF742FF054628B1002384F88F
:101B90002430284602B070BDA36A23F4885323F092
:101BA000020343F00203A3622F4B1E68022001F0E0
:101BB000B9FEB6FBF0F67600019602E0019B013B10
:101BC0000193019B002BF9D12046FFF743FE2268C9
:101BD000936843F008039360FFF758FD06462368B7
:101BE0009A6812F0080F14D0FFF750FD801B0A28E6
:101BF000F5D923689B6813F0080FF0D0A36A23F08F
:101C0000120343F01003A362002384F8243001255B
:101C1000BFE79A6842F004029A60FFF737FD064674
:101C200023689B6813F0040F14D0FFF72FFD801B6F
:101C30000A28F5D923689B6813F0040FF0D0A36A33
:101C400023F0120343F01003A362002384F824302E
:101C500001259EE7A36A23F0030343F00103A36277
:101C600094E7022595E700BF840B0020002808DBDD
:101C70000901C9B200F1604000F5614080F800132D
:101C8000704700F00F000901C9B2014B19547047A9
:101C900014ED00E000B500F00700C0F1070CBCF146
:101CA000040F28BF4FF0040C031D062B0FD9C31ED1
:101CB0004FF0FF3E0EFA0CF021EA000199400EFAB7
:101CC00003FE22EA0E0241EA02005DF804FB002353
:101CD000EEE70000BFF34F8F0549CA6802F4E062E7
:101CE000044B1343CB60BFF34F8F00BFFDE700BF32
:101CF00000ED00E00400FA05074AD36823F4E0632E
:101D00001B041B0C000200F4E060034343F0BF63BC
:101D100043F40033D360704700ED00E010B5044693
:101D2000054BD868C0F30220FFF7B4FF01462046F8
:101D3000FFF79CFF10BD00BF00ED00E0002807DBAF
:101D400000F01F02400901239340024A42F820306C
:101D5000704700BF00E100E008B5FFF7BBFF0000DF
:101D60000138B0F1807F0BD24FF0E0235861054A73
:101D7000F02182F823100020986107221A61704731
:101D80000120704700ED00E058B110B504464379DA
:101D90001BB101236371002010BD0371FEF794FF96
:101DA000F7E70120704730B40124056CAC40C56BE7
:101DB0006C60046863604368102B05D00368996009
:101DC0000368DA6030BC704703689A600368D960C2
:101DD000F8E7000060B310B402460168154B0B44ED
:101DE0001548A0FB03031B099B001364134BD3632B
:101DF000022382F82130086820F47F5020F0300060
:101E0000536894682343D468234314692343546973
:101E1000234394692343D469234303430B60002085
:101E20009063012382F8213082F8200010BC7047B3
:101E300001207047F8FFFDBFCDCCCCCC00000240A4
:101E400038B5044690F82000012831D0012084F8EC
:101E5000200094F82100012804D0002384F82030C9
:101E6000022038BD022084F821000020A0632568EC
:101E7000286820F0010028602046FFF794FFE36AFD
:101E80005BB12268136843F00E0313602268136885
:101E900043F0010313600020E3E72268136823F096
:101EA000040313602268136843F00A031360EDE72C
:101EB0000220D6E738B5C36B1A6804682568016C40
:101EC00004238B40134235D015F0040F32D0236821
:101ED00013F0200F03D1236823F004032360036869
:101EE000434A934214D01432934218D0143293428E
:101EF00017D01432934217D01432934217D01432B1
:101F0000934202D04FF0806203E04FF4800200E081
:101F10000422384B5A60C36A03B1984738BD402247
:101F2000F7E74FF48062F4E74FF48042F1E74FF4B3
:101F30008022EEE702238B4013423CD015F0020FC3
:101F400039D0236813F0200F06D1236823F00A0349
:101F50002360012380F821300368254A934214D07E
:101F6000143293421CD0143293421BD01432934249
:101F70001BD0143293421BD01432934202D04FF044
:101F8000007203E04FF4001200E00222194B5A6085
:101F9000002380F82030836A002BBFD09847BDE72C
:101FA0002022F3E74FF40072F0E74FF40052EDE720
:101FB0004FF40032EAE708238B401342AED015F00D
:101FC000080FABD0236823F00E032360026CC16BB3
:101FD000012303FA02F24A60836380F82130002370
:101FE00080F82030036B002B98D0984796E700BF0D
:101FF000080002400000024070B582B00024A446F0
:10200000A2E07E4DAB4210D007D97D4DAB420CD043
:1020100005F58035AB4208D013E0A5F58015AB423D
:1020200003D005F57025AB4207D18B68002B55D046
:10203000012B4ED04261082403E0A5F58015AB4288
:10204000F3D0BEF1FF0F4BD806464FEA8C0233683F
:102050000F25954023EA050304FA02F21343336087
:102060004B6813F0805F6DD0664B9A6942F00102B5
:102070009A619B6903F001030193019B4FEA9C0263
:10208000951C614B53F825600CF00305AD000F2340
:10209000AB4026EA03065D4B984228D003F58063E7
:1020A000984200F08D8003F58063984200F08A80AA
:1020B00003F58063984218D0042319E0CC68C0E788
:1020C000CC680434BDE7CC680834BAE7CC680C347B
:1020D000B7E702610824B4E70024B2E70424B0E7BC
:1020E000061DACF108029200B1E7032300E00023D3
:1020F000AB4033430232444D45F822304B6813F471
:10210000803F61D0424A136843EA0E0313604B6874
:1021100013F4003F5ED03E4A536843EA0E03536017
:102120004B6813F4801F5BD0394A936843EA0E036F
:1021300093604B6813F4001F58D0354AD36843EAC4
:102140000E03D3600CF1010C0B6833FA0CF253D080
:10215000012202FA0CF203EA020E32EA0303F1D181
:102160004B68122B3FF64DAF122B3FF66AAF01A51D
:1021700055F823F02B200008BD200008C7200008D8
:10218000D92000084320000843200008432000080D
:102190004320000843200008432000084320000893
:1021A0004320000843200008432000084320000883
:1021B0004320000843200008C1200008CD2000086B
:1021C000012395E7022393E7114A136823EA0E03DC
:1021D00013609CE70E4A536823EA0E0353609FE79F
:1021E0000B4A936823EA0E039360A2E7084AD36878
:1021F00023EA0E03D360A5E702B070BD00002210F1
:1022000000003110001002400000014000080140B1
:10221000000401400AB1016170470904016170477F
:10222000C36801EA030221EA030141EA02410161B4
:10223000704738B512F4804F44D00468B4F8503079
:102240009BB291F800C003EBCC03023304EB4304D0
:10225000B4F80044C4F309048B69A34228D31B1BC0
:102260008B618B697BB9056835F82C309BB223F400
:10227000804323F0700383F4005343F4004343F09E
:10228000800325F82C3012F0400F0ED002680D7834
:1022900032F825309BB223F4E04323F0700343F47B
:1022A000004343F0C00322F8253024B9204638BD4E
:1022B00000238B61D5E723460A894969006802F04B
:1022C000B1FFF3E70468B4F850309BB291F800C056
:1022D00003EBCC03063304EB4304B4F80044C4F32B
:1022E00009048B69A3422FD31B1B8B618B697BB9BC
:1022F000056835F82C309BB223F4804323F070033B
:1023000083F4005343F4004343F0800325F82C305A
:1023100012F0400F0FD1026891F800C032F82C3053
:102320009BB223F4E04323F0700343F4004343F0F3
:10233000C00322F82C30002CB8D023464A894969C2
:10234000006802F06FFFB1E700238B61CEE770B544
:1023500086B0002800F08580044690F8A932EBB1E1
:10236000032384F8A932206801F0A6FF254655F81A
:10237000106BEC460FCDACE80F002B68CCF80030AA
:10238000231D0ECB304601F087FF054658B10223CE
:1023900084F8A9320125284606B070BD80F8A8321D
:1023A00003F0C8FEDCE70021206801F08FFF2B4618
:1023B0001AE05A1C02EB820104EBC10101204870B3
:1023C00002EB820104F8313003EB830104EBC1011D
:1023D000CB8602EB820C04EBCC0C00208CF80300C3
:1023E0008863C8630864D3B261688B42E1D316E0A6
:1023F00005EB850304EBC303002283F8692183F80E
:10240000685183F86B21C3F87821C3F87C2105EB70
:10241000850304EBC303C3F880210135EDB2A94263
:10242000E6D8254655F8106BEC460FCDACE80F000A
:102430002B68CCF80030231D0ECB304601F048FF4E
:10244000054620B1022384F8A9320125A3E7002321
:1024500084F82430012384F8A932206802F06EFA4F
:1024600099E7012597E738B590F8A832012B11D0EC
:102470000446012580F8A852006801F014FF29469F
:10248000204603F06CFF206802F056FA002084F822
:10249000A80238BD0220FCE770B505460C4616467A
:1024A00012F0400F00F00D810268B2F850309BB27C
:1024B000097803EBC103023302EB4302B2F80024B4
:1024C000C2F30902A369934252D99B1AA361A3697B
:1024D000002B6AD16378002B4DD12B68B3F85020C4
:1024E00092B2134403EB0113B3F8042492B222F422
:1024F000F84292B2A3F80424B3F804246FEA4242EB
:102500006FEA524292B2A3F804242B686278002A40
:102510003ED1B3F8502092B21344227803EB021359
:10252000B3F80C2492B222F4F84292B2A3F80C242D
:10253000B3F80C246FEA42426FEA524292B2A3F817
:102540000C242178284603F029FE16F4804F41D050
:102550002A68217832F821309BB223F4E04323F03B
:10256000700343F4404343F0800322F8213031E00C
:102570000023A361ABE7012BC7D12B68B3F8502030
:1025800092B2134403EB01130022A3F80424BCE726
:10259000012AD6D1B3F8502092B21344227803EB2B
:1025A00002130022A3F80C24CBE716F4804F0DD0C1
:1025B000286830F821309BB223F4E04323F0700305
:1025C00043F4404343F0800320F8213094F8243052
:1025D000012B12D02A68217832F821309BB223F4E3
:1025E000E04323F0400383F0300343F4004343F01F
:1025F000800322F82130002070BD636913446361B9
:10260000E3691344E361216A236999421FD3C91A1C
:1026100021626278002A3FD12A68B2F8501089B24C
:102620000A44217802EB0112EBB9B2F8041489B222
:1026300021F4F84189B2A2F80414B2F804146FEA44
:1026400041416FEA514189B2A2F8041426E021B950
:10265000002384F824301346DBE7002384F8243079
:1026600023620B46D5E73E2B09D8590813F0010F1A
:1026700000D00131890289B2A2F804140EE0590990
:1026800013F01F0F00D101396FEAC1616FEA5141A8
:1026900089B2A2F8041401E0012A06D09BB2228973
:1026A0006169286802F052F994E72A68B2F850107C
:1026B00089B20A44217802EB011299B2A2F80414FB
:1026C000ECE70268B2F850309BB2097803EBC10323
:1026D000063302EB4302B2F80024C2F30902A369F5
:1026E000934253D39B1AA361A369002B6BD16378E8
:1026F000002B4ED12B68B3F8502092B2134403EB59
:102700000113B3F8042492B222F4F84292B2A3F86F
:102710000424B3F804246FEA42426FEA524292B2B0
:10272000A3F804242B686278002A3FD1B3F8502024
:1027300092B21344227803EB0213B3F80C2492B242
:1027400022F4F84292B2A3F80C24B3F80C246FEAF6
:1027500042426FEA524292B2A3F80C2421782846F2
:1027600003F01CFD16F4804F7FF434AF2A68217803
:1027700032F821309BB223F4E04323F0700343F49A
:10278000404343F0800322F8213023E70023A36174
:10279000AAE7012BC6D12B68B3F8502092B213449C
:1027A00003EB01130022A3F80424BBE7012AD5D1CF
:1027B000B3F8502092B21344227803EB02130022A4
:1027C000A3F80C24CAE716F4804F0DD1286830F81E
:1027D00021309BB223F4E04323F0700343F44043E1
:1027E00043F0800320F8213094F82430012B7FF44B
:1027F000F1AE636913446361E3691344E361216AE1
:10280000236999421FD3C91A21622A686178002975
:102810003ED1B2F8501089B20A44217802EB01127D
:10282000EBB9B2F80C1489B221F4F84189B2A2F8DC
:102830000C14B2F80C146FEA41416FEA514189B2AD
:10284000A2F80C1426E021B9002384F824301346A2
:10285000DBE70023236284F824300B46D5E73E2BC8
:1028600009D8590813F0010F00D00131890289B24B
:10287000A2F80C140EE0590913F01F0F00D1013912
:102880006FEAC1616FEA514189B2A2F80C1401E00C
:10289000012906D09BB262896169286802F056F866
:1028A00098E6B2F8501089B20A44217802EB01127E
:1028B00099B2A2F80C14EDE72DE9F041054628681D
:1028C000B0F8443013F4004F00F01382B0F84440E5
:1028D000A3B214F00F0440F0D88013F0100F61D0B1
:1028E00003889AB213F4006F40F0938012F4004F03
:1028F000E5D0038823F070031B051B0D43F0800314
:1029000003802868B0F850309BB295F8682103EB3B
:10291000C203063300EB4303B3F80034C3F30903E7
:10292000C5F884318BB1D5F87C1171B1B5F86E2141
:1029300002F078FCD5F87C31D5F884211344C5F831
:102940007C310021284603F01DFC2B681A8812F404
:10295000006FB4D1B3F8502092B21344D5F8782167
:10296000002A79D1B3F80C2492B222F4F84292B240
:10297000A3F80C24B3F80C246FEA42426FEA5242E7
:1029800092B2A3F80C242A6813889BB223F48043E4
:1029900023F0700383F4405343F4004343F0800377
:1029A00013808CE703889BB223F4E14323F0700388
:1029B0006FEA43436FEA53439BB203802A68B2F83D
:1029C00050309BB295F8281003EBC103023302EBA1
:1029D0004302B2F80034C3F309036B64EA6B1A4490
:1029E000EA630021284603F0D9FB95F82430002B38
:1029F0003FF465AF2B6C002B7FF461AF95F824306A
:102A00002A6843F08003A2F84C30002385F8243074
:102A100055E7B0F850309BB295F8682103EBC2033C
:102A2000063300EB4303B3F80034C3F30903C5F8DE
:102A30008431B5F86E2105F52C7102F0F3FB2A689C
:102A4000138823F070031B051B0D43F080031380D4
:102A5000284603F08FFB32E73E2A09D8510812F0CE
:102A6000010F00D001318A0292B2A3F80C248AE748
:102A7000510912F01F0F00D101396FEAC1626FEAEC
:102A8000524292B2A3F80C247DE730F824309EB273
:102A900013F4004F4FD116F0800F3FF410AF621CBB
:102AA00002EB820105EBC101286830F824309BB2AB
:102AB00023F4E14323F070036FEA43436FEA534387
:102AC0009BB220F82430CB78032B07D033B1022BF4
:102AD00040F00A8116F4807F40F006812868B0F843
:102AE00050309BB2621C02EB820215F8326003EB9D
:102AF000C603023300EB4303B3F80034C3F3090306
:102B000004EB840205EBC202126C9A4240F2D480BC
:102B100004EB840705EBC707D21A3A6404EB84027E
:102B200005EBC202126C002A40F0CD8031462846E7
:102B300003F034FBC3E630F8243023F070031B05A8
:102B40001B0D43F0800320F8243004EB8401C900FE
:102B500001F5B47105EB010804EB840305EBC30335
:102B600093F87431002B42D12868B0F850309BB2F2
:102B700004EB840205EBC20292F8682103EBC20366
:102B8000063300EB4303B3F80074C7F3090717BB20
:102B900004EB840305EBC303D3F884213A44C3F860
:102BA0008421D3F87C213A44C3F87C21D3F88031C6
:102BB0003BB104EB840305EBC303D3F878319F42A8
:102BC00075D204EB840305EBC30393F86811284620
:102BD00003F0D8FA5FE704EB840105EBC1013B4643
:102BE000B1F86E21D1F87C1102F01CFBD0E704EBA8
:102BF000840305EBC30393F86B31022B35D02968AE
:102C000004EB840205EBC20292F8680131F820302F
:102C10009BB223F4E04323F0700343F4004343F0FA
:102C2000C00321F82030286892F8682130F822305B
:102C300013F4804F20D0B0F850309BB203EBC203A6
:102C4000023300EB4303B3F80074C7F30907002F06
:102C50009ED004EB840105EBC1013B46B1F8702125
:102C6000D1F87C1102F0DEFA92E73246414628465E
:102C7000FFF7DFFA07468BE7B0F850309BB203EB63
:102C8000C203063300EB4303B3F80074C7F309072C
:102C9000002F3FF47DAF04EB840105EBC1013B46FF
:102CA000B1F87221D1F87C1102F0BCFA70E741460C
:102CB000286801F05EFEEEE604EB840205EBC2023A
:102CC000002717642AE704EB840205EBC202D66BE7
:102CD0001E44D663526C04EB840405EBC404134415
:102CE000636401F046FEEAE532462846FFF7D4FB6E
:102CF000E5E50020BDE8F08190F8A832012B0DD069
:102D000010B50446012380F8A83280F8241000682A
:102D100001F00CFE002084F8A80210BD02207047CC
:102D200010B584B00446006801F00AFE10F4004FAC
:102D300047D1206801F004FE10F4806F45D120686F
:102D400001F0FEFD10F4804F08D02268B2F8443044
:102D50009BB223F480439BB2A2F84430206801F078
:102D6000EFFD10F4005F08D02268B2F844309BB247
:102D700023F400539BB2A2F84430206801F0E0FD38
:102D800010F4805F32D1206801F0DAFD10F4006F9A
:102D900078D1206801F0D4FD10F4007F40F09D80D0
:102DA000206801F0CDFD10F4807F08D02268B2F8D1
:102DB00044309BB223F480739BB2A2F8443004B039
:102DC00010BD2046FFF778FDB3E72268B2F8443023
:102DD0009BB223F480639BB2A2F84430204603F0F8
:102DE000EEF900212046FFF787FFA8E72268B2F836
:102DF00040309BB223F004039BB2A2F8403022681B
:102E0000B2F840309BB223F008039BB2A2F84030E6
:102E1000204603F0F7F92268B2F844309BB223F45D
:102E200080539BB2A2F84430ADE7226832F82310F9
:102E300004AA02EB430222F8101C0133DBB2072B79
:102E4000F3D92268B2F840309BB243F00103A2F8F4
:102E500040302268B2F840309BB223F001039BB2AD
:102E6000A2F840302368B3F8442012F4806FF9D000
:102E7000B3F8442092B222F4806292B2A3F84420C4
:102E800000230BE00023DAE7226804A901EB4301E9
:102E900031F8101C22F823100133DBB2072BF3D9D1
:102EA0002268B2F840309BB243F00803A2F84030E9
:102EB0002268B2F844309BB223F400639BB2A2F8BC
:102EC00044302268B2F840309BB243F00403A2F8C9
:102ED0004030204603F086F95BE72268B2F84430C0
:102EE0009BB223F400739BB2A2F84430204603F057
:102EF00060F955E710B504468C4611F0800F2AD1D1
:102F000001F0070000EB8001C90001F5B47E04EB7D
:102F10000E0100EB800004EBC0004FF0000E80F8C3
:102F200069E10CF0070C81F800C00A61CB704A78A7
:102F30000AB1A1F80EC0022B19D094F8A832012BC7
:102F400018D0012384F8A832206801F0D2F90020BB
:102F500084F8A80210BD01F00700013000EB8001E9
:102F600004EBC1014FF0010E81F801E0D9E7002325
:102F70000B71E2E70220EDE710B504460B4611F0B5
:102F8000800F1FD101F0070202EB8201C90001F599
:102F9000B471014402EB820200EBC202002082F80D
:102FA000690103F007030B7094F8A832012B13D0CA
:102FB000012384F8A832206801F057FB002084F830
:102FC000A80210BD01F00702013202EB820100EB02
:102FD000C10101204870E4E70220F2E710B501F0DA
:102FE000070404EB8401C90001F5B471014404EB4A
:102FF000840C00EBCC0CCCF87C21CCF88031002385
:10300000CCF884318CF869318CF8684124B90068B7
:1030100001F0AFFC002010BD006801F0AAFCF9E748
:1030200001F0070101EB810100EBC100D0F8840140
:10303000704710B501F0070404F1010C0CEB8C0192
:1030400000EBC10104EB840E00EBCE0ECEF83C2069
:10305000CEF8403001228EF84C20CEF848300023C4
:10306000CEF844304A700CEB8C0C00F83C4024B98C
:10307000006801F07EFC002010BD006801F079FCC2
:10308000F9E738B501F007054268954231D80446A2
:103090000B4611F0800F1ED101EB8101C90001F533
:1030A000B471014403EB830300EBC303002283F8F4
:1030B000692101238B700D7094F8A832012B1AD06E
:1030C000012384F8A832206801F0BAFB5DB100202A
:1030D00084F8A80238BD6B1C03EB830100EBC1012F
:1030E00001224A70E5E704F52C71206801F02CFC00
:1030F000EDE70120EEE70220ECE70B4601F00F01BF
:103100004268914230D810B5044613F0800F21D1A7
:1031100003F0070202EB8201C90001F5B47101441A
:1031200002EB820200EBC202002082F86901002259
:103130008A7003F007030B7094F8A832012B15D0A6
:10314000012384F8A832206801F09FFB002084F856
:10315000A80210BD03F00702013202EB820100EB6E
:10316000C10101204870E2E7012070470220F0E72A
:1031700011F0800F0BD001F00701013101EB81014B
:1031800000EBC10052B90273C3800020704701EB0D
:103190008101C90001F5B4710844F3E7012202730B
:1031A00003811B0C4381F0E782B0084B1B68084A7F
:1031B000A2FB03235B0A00FB03F3019300BF019B07
:1031C0005A1E0192002BF9D102B07047840B0020E7
:1031D000D34D6210002800F0F18170B582B0044632
:1031E000036813F0010F2CD0994B5B6803F00C03BC
:1031F000042B1DD0964B5B6803F00C03082B12D0F8
:103200006368B3F5803F41D0002B55D103F1804373
:1032100003F504331A6822F480321A601A6822F423
:1032200080221A6037E08A4B5B6813F4803FE7D056
:10323000874B1B6813F4003F03D06368002B00F03A
:10324000BF81236813F0020F75D0814B5B6813F0C8
:103250000C0F5FD07E4B5B6803F00C03082B54D03F
:103260002369002B00F08A807A4B01221A60FEF756
:103270000DFA0546764B1B6813F0020F75D1FEF769
:1032800005FA401B0228F5D903209EE1704A136815
:1032900043F480331360636843B3FEF7F7F90546E0
:1032A0006B4B1B6813F4003FCBD1FEF7EFF9401BCB
:1032B0006428F5D9032088E1B3F5A02F09D0644B29
:1032C0001A6822F480321A601A6822F480221A6086
:1032D000E1E703F18043A3F53C331A6842F480220E
:1032E0001A601A6842F480321A60D4E7FEF7CEF909
:1032F0000546574B1B6813F4003FA2D0FEF7C6F9F2
:10330000401B6428F5D903205FE1514B5B6813F43F
:10331000803FA5D14E4B1B6813F0020F03D02369E9
:10332000012B40F04F814A4A136823F0F80361698A
:1033300043EAC1031360236813F0080F33D0A36975
:10334000002B5CD0434B0122C3F88024FEF79EF98A
:1033500005463F4B5B6A13F0020F21D1FEF796F949
:10336000401B0228F5D903202FE1394A136823F0C6
:10337000F803616943EAC1031360DCE7354B0022BF
:103380001A60FEF783F90546314B1B6813F0020FF4
:10339000D1D0FEF77BF9401B0228F5D9032014E1B8
:1033A0000120FFF701FF236813F0040F00F096805F
:1033B000274BDB6913F0805F34D1254BDA6942F08B
:1033C0008052DA61DB6903F080530193019B012590
:1033D000214B1B6813F4807F26D0E368012B3DD07E
:1033E000002B53D103F1804303F504331A6A22F012
:1033F00001021A621A6A22F004021A6233E0154BC3
:103400000022C3F88024FEF741F90546104B5B6AA1
:1034100013F0020FC7D0FEF739F9401B0228F5D987
:103420000320D2E00025D3E70B4A136843F48073EE
:103430001360FEF72BF90646074B1B6813F4807FD9
:10344000CBD1FEF723F9801B6428F5D90320BCE01B
:103450000010024000004242007000405F4A136AC0
:1034600043F001031362E36833B3FEF70FF9064636
:103470005A4B1B6A13F0020F2FD1FEF707F9801B7E
:1034800041F288339842F3D903209EE0052B09D0FE
:10349000524B1A6A22F001021A621A6A22F00402DE
:1034A0001A62E0E74D4B1A6A42F004021A621A6A85
:1034B00042F001021A62D6E7FEF7E8F80646474BEB
:1034C0001B6A13F0020F08D0FEF7E0F8801B41F2F0
:1034D00088339842F3D9032077E0E5B9E369002BFC
:1034E00072D03E4A526802F00C02082A56D0022BD3
:1034F00017D03B4B00221A66FEF7C8F80446374B3C
:103500001B6813F0007F47D0FEF7C0F8001B0228AD
:10351000F5D9032059E0314AD36923F08053D361B0
:10352000DCE72F4B00221A66FEF7B0F805462B4B5E
:103530001B6813F0007F06D0FEF7A8F8401B022896
:10354000F5D9032041E0236AB3F5803F1AD023491F
:103550004B6823F47413226A606A024313434B607E
:103560001F4B01221A66FEF791F804461B4B1B689D
:1035700013F0007F0ED1FEF789F8001B0228F5D961
:10358000032022E0154A536823F40033A1680B435B
:103590005360DCE7002018E0002016E0012B16D075
:1035A0000E4B5B6803F48031226A914211D103F41F
:1035B0007013626A93420ED1002006E0012070472A
:1035C000012002E0012000E0002002B070BD0120D7
:1035D000FBE70120F9E70120F7E700BF00100240F8
:1035E0000000424286B0174B0FCB0DF1180C0CE9CE
:1035F0000F0040F20123ADF80430134B5B6803F079
:103600000C02082A02D0114806B07047C3F3834267
:1036100018326A4412F8100C13F4803F0DD00A4B94
:103620005B68C3F3404318336B4413F8143C074AF8
:1036300002FB00F0B0FBF3F0E6E7054B03FB00F004
:10364000E2E700BF60C200080010024000127A00EA
:1036500000093D00002800F0A08070B50D4604462A
:10366000524B1B6803F007038B420BD24F4A13687F
:1036700023F007030B431360136803F007038B4227
:1036800040F08D80236813F0020F17D013F0040F61
:1036900004D0474A536843F4E0635360236813F04F
:1036A000080F04D0424A536843F460535360404AC1
:1036B000536823F0F003A1680B435360236813F0B1
:1036C000010F31D06368012B20D0022B25D0384A5E
:1036D000126812F0020F64D035494A6822F00302E2
:1036E00013434B60FDF7D2FF0646314B5B6803F096
:1036F0000C036268B3EB820F16D0FDF7C7FF801B87
:1037000041F288339842F0D9032045E0284A1268F4
:1037100012F4003FE0D101203EE0254A126812F089
:10372000007FD9D1012037E0204B1B6803F007034D
:10373000AB420AD91D4A136823F007032B431360D9
:10374000136803F00703AB422DD1236813F0040F75
:1037500006D0174A536823F4E063E1680B435360D3
:10376000236813F0080F07D0114A536823F46053FD
:10377000216943EAC1035360FFF734FF0C4B5B68D8
:10378000C3F303130B4AD35CD8400B4B18600B4BAD
:103790001868FDF737FF002070BD01207047012039
:1037A000FAE70120F8E70120F6E700BF0020024019
:1037B0000010024050C20008840B00208C0B002037
:1037C000014B1868704700BF840B002008B5FFF755
:1037D000F7FF044B5B68C3F30223034AD35CD84072
:1037E00008BD00BF0010024048C2000808B5FFF73E
:1037F000E7FF044B5B68C3F3C223034AD35CD840A2
:1038000008BD00BF0010024048C2000870B582B079
:103810000446036813F0010F36D03F4BDB6913F009
:10382000805F49D13C4BDA6942F08052DA61DB6952
:1038300003F080530193019B0125384B1B6813F45F
:10384000807F3BD0344B1B6A13F4407313D0626803
:1038500002F440729A420ED02F4A136A23F4407049
:103860002F490126C1F840640026C1F84064106267
:1038700013F0010F36D1284A136A23F440736168AC
:103880000B431362002D3ED1236813F0020F06D0C4
:10389000214A536823F44043A1680B4353602368D3
:1038A00013F0100F34D01C4A536823F48003E168EE
:1038B0000B43536000202CE00025BEE7174A136835
:1038C00043F480731360FDF7E1FE0646134B1B685B
:1038D00013F4807FB6D1FDF7D9FE801B6428F5D99B
:1038E000032016E0FDF7D2FE06460B4B1B6A13F0D1
:1038F000020FC0D1FDF7CAFE801B41F28833984207
:10390000F3D9032005E0D36923F08053D361BBE7EB
:10391000002002B070BD00BF0010024000700040E7
:103920000000424200B587B08446394B0FCB0DF101
:10393000180E0EE90F0040F20123ADF80430BCF17F
:10394000020F56D0BCF1100F06D0BCF1010F2ED0E3
:10395000002007B05DF804FB2E4B5A68186810F081
:103960008070F6D0C2F3834318336B4413F8100C05
:1039700012F4803F17D0274B5B68C3F340431833E2
:103980006B4413F8142C244BB3FBF2F303FB00F04D
:10399000204B5B6813F4800FDBD140001F4BA3FB6F
:1039A00000304008D5E71E4B03FB00F0F0E7194B51
:1039B0001B6A40F202321A40B2F5817F24D003F430
:1039C0004073B3F5007F04D0B3F5407F09D00020E9
:1039D000BFE7104A526A12F0020FF5D049F6404094
:1039E000B7E70C4B186810F40030B2D04FF2244007
:1039F000AFE7FFF7FBFE074B5B68C3F3813301338F
:103A00005B00B0FBF3F0A4E74FF40040A1E700BF78
:103A100060C200080010024000127A00ABAAAAAAF5
:103A200000093D0010B4036A046A24F00104046232
:103A3000846924F0F00C4CEA021223F00A030B43D1
:103A40008261036210BC704710B4036A23F0100354
:103A500003628469036A24F4704C4CEA023223F056
:103A6000A00343EA01138261036210BC70478368BC
:103A700023F070030B4343F007038360704700009B
:103A800090F83D30DBB2012B27D1022380F83D3086
:103A90000268D36843F00103D3600368114A93427C
:103AA00010D0B3F1804F0DD0A2F59432934209D0DB
:103AB00002F58062934205D01A6842F001021A6052
:103AC000002070479A6802F00702062A07D01A6899
:103AD00042F001021A600020704701207047002068
:103AE000704700BF002C0140704770477047704717
:103AF00010B5044603681A6912F0020F11D0DA6893
:103B000012F0020F0DD06FF002021A610123037749
:103B100003689B6913F0030F70D0FFF7E6FF0023E3
:103B2000237723681A6912F0040F12D0DA6812F0B2
:103B3000040F0ED06FF004021A610223237723686A
:103B40009B6913F4407F5FD02046FFF7CEFF002330
:103B5000237723681A6912F0080F12D0DA6812F07E
:103B6000080F0ED06FF008021A6104232377236830
:103B7000DB6913F0030F4ED02046FFF7B6FF00239A
:103B8000237723681A6912F0100F12D0DA6812F046
:103B9000100F0ED06FF010021A61082323772368EC
:103BA000DB6913F4407F3DD02046FFF79EFF0023E2
:103BB000237723681A6912F0010F03D0DA6812F034
:103BC000010F36D123681A6912F0800F03D0DA682A
:103BD00012F0800F34D123681A6912F0400F03D01D
:103BE000DA6812F0400F32D123681A6912F0200F00
:103BF00003D0DA6812F0200F30D110BDFFF774FF48
:103C00002046FFF773FF8AE72046FFF76DFF204647
:103C1000FFF76CFF9BE72046FFF766FF2046FFF7A4
:103C200065FFACE72046FFF75FFF2046FFF75EFF2A
:103C3000BDE76FF001021A612046FDF701FAC1E706
:103C40006FF080021A61204600F027F9C3E76FF099
:103C500040021A612046FFF74AFFC5E76FF02002D5
:103C60001A61204600F018F9C7E7000003681B4AF4
:103C700090420AD0B0F1804F07D0A2F59432904222
:103C800003D002F58062904203D123F070034A68AA
:103C90001343124A90420AD0B0F1804F07D0A2F5E8
:103CA0009432904203D002F58062904203D123F413
:103CB0004073CA68134323F080034A6913430360C7
:103CC0008B68C3620B688362044B984202D0012365
:103CD000436170470B690363F9E700BF002C0140A3
:103CE00040B310B5044690F83D30F3B1022384F898
:103CF0003D30214651F8040BFFF7B8FF012384F84B
:103D0000463084F83E3084F83F3084F8403084F800
:103D1000413084F8423084F8433084F8443084F8E9
:103D2000453084F83D30002010BD80F83C30FDF770
:103D30001DFBDBE70120704710B4846824F47F4C3E
:103D400042EA03220A4342EA0C02826010BC704736
:103D500090F83C30012B66D010B50446012380F862
:103D60003C30022380F83D300268936823F47F439F
:103D700023F0770393600B68602B40D022D8402B50
:103D800047D00BD9502B0ED1CA6849680068FFF79D
:103D900049FE50212068FFF76AFE04E0202B0CD07A
:103DA00008D9302B09D0012384F83D30002084F855
:103DB0003C0010BD0BB1102BF5D119462068FFF760
:103DC00056FEF0E7702B0ED0B3F5005FEBD1CB6859
:103DD0004A6889680068FFF7AFFF2268936843F478
:103DE00080439360DFE7CB684A6889680068FFF723
:103DF000A3FF2268936843F077039360D3E7CA6810
:103E000049680068FFF720FE60212068FFF72FFE59
:103E1000C9E7CA6849680068FFF704FE40212068C6
:103E2000FFF725FEBFE702207047000090F83C2016
:103E3000012A2CD010B40346012280F83C20022233
:103E400080F83D2002685068946820F0700C086883
:103E500040EA0C0050601A680E4882420AD0B2F163
:103E6000804F07D0A0F59430824203D000F58060E7
:103E7000824204D124F080044968214391600122E8
:103E800083F83D20002083F83C0010BC70470220DE
:103E9000704700BF002C0140704770470268D3682C
:103EA00023F0C003D360202380F83D3070470268C0
:103EB000D36823F49073D3600268536923F001033D
:103EC0005361036B012B05D0202380F83E30002383
:103ED000036370470268D36823F01003D360F3E7ED
:103EE00010B504460268136923F44053C1680B43BC
:103EF000136183680269134342691A430168CB68FE
:103F000023F4B05323F00C031343CB6002685369CE
:103F100023F4407381690B4353610268134B9A4247
:103F200020D0FFF753FC024602EB820202EB820232
:103F300063689B00B2FBF3F20D48A0FB0231490914
:103F4000642303FB11231B013233A0FB03035B0932
:103F500003F0F00202EB011203F00F032168134497
:103F60008B6010BDFFF742FC0246DDE700380140E0
:103F70001F85EB512DE9F84305460F461646994635
:103F8000DDF820802B681C6837EA04040CBF01248C
:103F90000024B4421FD1B8F1FF3FF3D0B8F1000FB5
:103FA00005D0FDF773FBA0EB09004045EAD92A686C
:103FB000D36823F4D073D3602A68536923F00103D4
:103FC0005361202385F83D3085F83E30002385F885
:103FD0003C30032000E00020BDE8F88358B310B562
:103FE000044690F83D300BB3242384F83D3022681A
:103FF000D36823F40053D3602046FFF771FF226893
:10400000136923F4904313612268536923F02A0350
:1040100053612268D36843F40053D36000202064C6
:10402000202384F83D3084F83E3010BD80F83C30C9
:10403000FDF7EEF9D8E7012070472DE9F04182B095
:104040001E4690F83D30DBB2202B54D104460D467D
:104050009046002953D0002A53D090F83C30012BD1
:1040600051D0012380F83C3000230364212380F8E1
:104070003D30FDF70BFB0746A4F82480A4F826800A
:10408000A368B3F5805F05D04FF00008002384F8E3
:104090003C3012E0236913B14FF00008F6E7A84660
:1040A0000025F3E738F8023B2268C3F308035360A6
:1040B000E28C92B2013A92B2E284E38C9BB273B189
:1040C00000963B46002280212046FFF753FFE0B9CF
:1040D000002DE7D015F8012B23685A60E8E7009619
:1040E0003B46002240212046FFF744FF78B92023B9
:1040F00084F83D3000E0022002B0BDE8F0810120EC
:10410000FAE70120F8E70220F6E70320F4E70320AE
:10411000F2E77047704710B5446A23685A6994F80B
:104120003D30DBB2212B10D023685A6902F04002E7
:1041300094F83E30DBB2222B11D0236C43F01003F5
:1041400023642046FFF7E6FF10BD02F08002002A3C
:10415000EAD00023E3842046FFF7A0FEE4E7002A2C
:10416000EBD00023E3852046FFF7A1FEE5E770478B
:1041700008B5406A036B012B02D0FFF7CAFF08BDE8
:10418000818D4908FFF7F3FFF9E708B50346406A58
:104190001B681B6813F0200F16D10023C38502682B
:1041A000D36823F48073D3600268536923F001035A
:1041B00053610268536923F040035361202380F860
:1041C0003E30036B012B05D0036B012B08D0FCF7AD
:1041D00051FE08BD0268D36823F01003D360F3E7F3
:1041E000818DFFF7C4FFF4E730B583B00446134672
:1041F0008162828500250564222280F83E20826B40
:1042000014489062A26B1448D062A26B13481063EA
:10421000A26B556320680A46011DA06BFDF710FED6
:10422000019523681A6801925A680192019A84F8EC
:104230003C50DA6842F48072DA602268536943F0D5
:10424000010353612268536943F0400353612846D8
:1042500003B030BD8B4100087141000817410008D0
:1042600008B590F83E30DBB2202B0DD171B17AB198
:1042700090F83C30012B0DD0012380F83C30002316
:104280000363FFF7B1FF00E0022008BD0120FCE757
:104290000120FAE70220F8E784B001A880E80E00C8
:1042A000002004B0704703460020A3F844004FF4F8
:1042B0003F42A3F840207047B0F8403023F47C53CD
:1042C0005B045B0CA0F84030002070470020704772
:1042D00084B0844601A880E80E000123ACF8403089
:1042E0000020ACF84000ACF84400ACF8500004B03A
:1042F000704710B5034691F800C030F82C2092B2F8
:1043000022F4EC4222F0700292B2C878032861D8FD
:10431000DFE800F0555C0258002048F2800E42EAC7
:104320000E0223F82C2091F800C033F82C2092B212
:1043300022F4E04222F0700242EA0C0242EA0E024B
:1043400023F82C200A7B002A40F0C4804A78002AF7
:1043500051D0B3F8502092B21A440C7802EB0412F8
:10436000B1F806C04FEA5C0C4FEA4C0CA2F800C44E
:104370000C7833F8242012F0400F0CD033F82420AE
:1043800092B222F4E04222F0700242F4004242F083
:10439000C00223F82420CA78012A1DD0097833F8F6
:1043A000212092B222F4E04222F0400282F0200268
:1043B00042F4004242F0800223F821206AE042F4F5
:1043C0000072AAE742F4C0620020A6E742F48062CD
:1043D0000020A2E70120A0E7097833F8212092B25B
:1043E00022F4E04222F0400242F4004242F0800215
:1043F00023F821204EE0B3F8502092B21A440C78F2
:1044000002EB0412B1F806C04FEA5C0C4FEA4C0C08
:10441000A2F808C4B3F8502092B21A440C7802EB08
:1044200004120C69BCBBB2F80CC41FFA8CFC2CF44F
:10443000F84C1FFA8CFCA2F80CC4B2F80CC46FEA5A
:104440004C4C6FEA5C4C1FFA8CFCA2F80CC40C7844
:1044500033F8242012F4804F0CD033F8242092B289
:1044600022F4E04222F0700242F4404242F0800224
:1044700023F82420097833F8212092B222F48042D4
:1044800022F0700282F4405242F4004242F0800274
:1044900023F8212010BD3E2C0DD84FEA540C14F007
:1044A000010F01D00CF1010C4FEA8C2C1FFA8CFC8F
:1044B000A2F80CC4CBE74FEA541C14F01F0F01D133
:1044C0000CF1FF3C6FEACC646FEA5444A4B2A2F84A
:1044D0000C44BCE791F800C033F82C2092B222F4CF
:1044E000E04222F0700242F4014242F0800223F8DE
:1044F0002C20B3F8502092B21A4491F800C002EB7D
:104500000C12B1F808C04FEA5C0C4FEA4C0CA2F850
:1045100000C4B3F8502092B21A4491F800C002EBE4
:104520000C12B1F80AC04FEA5C0C4FEA4C0CA2F82E
:1045300008C44A78002A41D10C7833F8242012F4B8
:10454000804F0CD033F8242092B222F4E04222F0C3
:10455000700242F4404242F0800223F824200C789A
:1045600033F8242012F0400F0CD033F8242092B2FC
:1045700022F4E04222F0700242F4004242F0C00213
:1045800023F8242091F800C033F82C2092B222F4B2
:10459000804222F0700282F4405248F280042243AA
:1045A00023F82C20097833F8212092B222F4E0423B
:1045B00022F04002224323F821206BE70C7833F8E5
:1045C000242012F4804F0CD033F8242092B222F42D
:1045D000E04222F0700242F4404242F0800223F8AE
:1045E00024200C7833F8242012F0400F0CD033F83C
:1045F000242092B222F4E04222F0700242F40042FF
:1046000042F0C00223F82420CA78012A1ED00C7878
:1046100033F8242092B222F4E04222F0400282F0E9
:10462000200242F4004242F0800223F8242009785C
:1046300033F8212092B222F4804222F0700242F438
:10464000004242F0800223F8212023E70C7833F85F
:10465000242092B222F4E04222F0400242F40042CE
:1046600042F0800223F82420E1E70B7B002B46D1A7
:104670004B7813B30A7830F8223013F0400F0CD087
:1046800030F822309BB223F4E04323F0700343F46C
:10469000004343F0C00320F822300A7830F822307B
:1046A0009BB223F4E04323F0400343F4004343F080
:1046B000800320F82230002070470A7830F822303A
:1046C00013F4804F0CD030F822309BB223F4E04337
:1046D00023F0700343F4404343F0800320F822307A
:1046E0000A7830F822309BB223F4804323F0700321
:1046F00043F4004343F0800320F82230DBE74B789B
:10470000002B4ED10A7830F8223013F4804F0CD0B1
:1047100030F822309BB223F4E04323F0700343F4DB
:10472000404343F0800320F822300A7830F82230EA
:1047300013F0400F0CD030F822309BB223F4E0434A
:1047400023F0700343F4004343F0C00320F8223009
:104750000A7830F822309BB223F4E04323F0700350
:1047600043F4004343F0C00320F822300A7830F8C5
:1047700022309BB223F4804323F0700348F2800C74
:1047800043EA0C0320F822300A7830F822309BB23A
:1047900023F4E04323F0400343EA0C0320F82230E3
:1047A00089E70A7830F8223013F4804F0CD030F8C3
:1047B00022309BB223F4E04323F0700343F44043E0
:1047C00043F0800320F822300A7830F8223013F0CA
:1047D000400F0CD030F822309BB223F4E04323F09A
:1047E000700343F4004343F0C00320F822300A78FA
:1047F00030F822309BB223F4E04323F0700343F4FB
:10480000404343F0800320F822300A7830F8223009
:104810009BB223F4E04323F0400348F2800C43EAC8
:104820000C0320F822300A7830F822309BB223F4AF
:10483000804323F0700343EA0C0320F822303AE768
:104840004B788BB10A7830F822309BB223F4E043E6
:1048500023F0400383F0100343F4004343F080034C
:1048600020F82230002070470A7830F822309BB2BE
:1048700023F4804323F0700383F4805343F4004314
:1048800043F0800320F82230ECE70B7B002B4BD168
:104890004B7833B30A7830F8223013F0400F0CD045
:1048A00030F822309BB223F4E04323F0700343F44A
:1048B000004343F0C00320F82230CB78012B33D0E3
:1048C0000A7830F822309BB223F4E04323F040030F
:1048D00083F0200343F4004343F0800320F82230A8
:1048E00022E00A7830F8223013F4804F0CD030F8F0
:1048F00022309BB223F4E04323F0700343F440439F
:1049000043F0800320F822300A7830F822309BB23E
:1049100023F4804323F0700383F4405343F40043B3
:1049200043F0800320F822300020704711B9802323
:10493000A0F84C30002070470020704700207047DE
:10494000B0F8440080B270470020704701335B0824
:1049500000EB420000F5806008E00A7891F801C0A1
:1049600042EA0C2220F8042B0231013B002BF4D147
:10497000704770B505460C464B78012B37D00A7B43
:10498000002A40F026838B690A69934240F204832F
:104990009B1A8B61B5F850309BB22B44217803EB06
:1049A0000113002A40F0FC82B3F80C2492B222F4E6
:1049B000F84292B2A3F80C24B3F80C246FEA4242F6
:1049C0006FEA524292B2A3F80C24227835F82230D2
:1049D0009BB223F4804323F0700383F4405343F4E9
:1049E000004343F0800325F82230002070BD8E691B
:1049F0000A69964200D91646237B002B39D0E3780A
:104A0000022B58D0227835F822309BB223F4E043B1
:104A100023F0700343F4014343F0800325F8223070
:104A2000236A9B1B2362237835F8232012F0400F62
:104A300000F026826278002A40F0CA81B5F8502042
:104A400092B22A4402EB0313002E40F0A881B3F87F
:104A50000C2492B222F4F84292B2A3F80C24B3F8D8
:104A60000C246FEA42426FEA524292B2A3F80C243D
:104A7000B0E1B6B23346E28861692846FFF766FFC7
:104A8000B5F850309BB22B44227803EB0213A3F805
:104A90000464227835F822309BB223F4E04323F0FB
:104AA000400383F0300343F4004343F0800325F8D0
:104AB000223000209AE7236A9A4280F052812278BD
:104AC00035F822309BB223F4E04323F0700343F423
:104AD000014343F0800325F82230236A9B1B2362A5
:104AE000237835F8232012F0400F00F09D80627883
:104AF0008ABBB5F8502092B22A4402EB03138EB958
:104B0000B3F80C2492B222F4F84292B2A3F80C2427
:104B1000B3F80C246FEA42426FEA524292B2A3F811
:104B20000C241AE03E2E09D8720816F0010F00D0AE
:104B30000132920292B2A3F80C240EE0720916F030
:104B40001F0F00D1013A6FEAC2626FEA524292B27D
:104B5000A3F80C2401E0012A2BD0B3B26289616969
:104B60002846FFF7F3FE636933446361236A2269D1
:104B7000934228D99B1B23626378002B40D1B5F860
:104B800050309BB22B44227803EB0213FEB9B3F8EA
:104B9000042492B222F4F84292B2A3F80424B3F8A7
:104BA00004246FEA42426FEA524292B2A3F804240C
:104BB00028E0B5F8502092B22A4402EB0313B2B2B7
:104BC000A3F80C24C9E7002222621E46D4E73E2E39
:104BD00009D8720816F0010F00D00132920292B289
:104BE000A3F804240EE0720916F01F0F00D1013A59
:104BF0006FEAC2626FEA524292B2A3F8042401E063
:104C0000012B06D0B3B2228961692846FFF79EFEC8
:104C10003FE7B5F850309BB22B44227803EB0213E8
:104C2000B2B2A3F80424EDE762788ABBB5F850204D
:104C300092B22A4402EB03138EB9B3F8042492B261
:104C400022F4F84292B2A3F80424B3F804246FEAE1
:104C500042426FEA524292B2A3F804241AE03E2E76
:104C600009D8720816F0010F00D00132920292B2F8
:104C7000A3F804240EE0720916F01F0F00D1013AC8
:104C80006FEAC2626FEA524292B2A3F8042401E0D2
:104C9000012A2BD0B3B2228961692846FFF756FE5C
:104CA000636933446361236A2269934228D99B1B59
:104CB00023626378002B40D1B5F850309BB22B446F
:104CC000227803EB0213FEB9B3F80C2492B222F45B
:104CD000F84292B2A3F80C24B3F80C246FEA4242D3
:104CE0006FEA524292B2A3F80C2428E0B5F85020A3
:104CF00092B22A4402EB0313B2B2A3F80424C9E728
:104D0000002222621E46D4E73E2E09D8720816F011
:104D1000010F00D00132920292B2A3F80C240EE0EF
:104D2000720916F01F0F00D1013A6FEAC2626FEAF2
:104D3000524292B2A3F80C2401E0012B06D0B3B288
:104D4000628961692846FFF701FEA2E6B5F8503096
:104D50009BB22B44227803EB0213B2B2A3F80C24CB
:104D6000EDE7217835F8212092B222F4E24222F0D8
:104D7000700242F4004242F0800225F82120B5F88A
:104D8000502092B22A44217802EB01129BB2A2F881
:104D90000434228961692846FFF7D8FD79E63E2E62
:104DA00009D8720816F0010F00D00132920292B2B7
:104DB000A3F80C240EE0720916F01F0F00D1013A7F
:104DC0006FEAC2626FEA524292B2A3F80C2401E089
:104DD000012A26D0B3B2628961692846FFF7B6FD81
:104DE000636933446361236A2269934223D99B1B1D
:104DF0002362002E3FF44DAE63786BBBB5F85030A4
:104E00009BB22B44227803EB02133E2E17D8720874
:104E100016F0010F00D00132920292B2A3F80424DE
:104E20001CE0B5F8502092B22A4402EB0313B2B250
:104E3000A3F80C24CEE7002222621E46D9E77209AD
:104E400016F01F0F00D1013A6FEAC2626FEA5242B8
:104E500092B2A3F8042401E0012B06D0B3B2228958
:104E600061692846FFF772FD13E6B5F850309BB232
:104E70002B44227803EB0213B2B2A3F80424EDE72B
:104E800062788ABBB5F8502092B22A4402EB031331
:104E90008EB9B3F8042492B222F4F84292B2A3F885
:104EA0000424B3F804246FEA42426FEA524292B2F9
:104EB000A3F804241AE03E2E09D8720816F0010F58
:104EC00000D00132920292B2A3F804240EE07209DB
:104ED00016F01F0F00D1013A6FEAC2626FEA524228
:104EE00092B2A3F8042401E0012A26D0B3B22289A9
:104EF00061692846FFF72AFD636933446361236AC9
:104F00002269934223D99B1B2362002E3FF4C1AD3B
:104F100063786BBBB5F850309BB22B44227803EB1F
:104F200002133E2E17D8720816F0010F00D001327E
:104F3000920292B2A3F80C241CE0B5F8502092B271
:104F40002A4402EB0313B2B2A3F80424CEE70022F2
:104F500022621E46D9E7720916F01F0F00D1013AEE
:104F60006FEAC2626FEA524292B2A3F80C2401E0E7
:104F7000012B06D0B3B2628961692846FFF7E6FCCF
:104F800087E5B5F850309BB22B44227803EB02132F
:104F9000B2B2A3F80C24EDE700228A611A46F9E4C4
:104FA0003E2A09D8510812F0010F00D001318902C0
:104FB00089B2A3F80C1408E5510912F01F0F00D1B3
:104FC00001396FEAC1616FEA514189B2A3F80C144B
:104FD000FBE4CA78022A45D0012A40F02081896981
:104FE0002269914240F2D480891AA161D3B9B5F8FF
:104FF00050309BB22B44217803EB0113002A40F080
:10500000CB80B3F8041489B221F4F84189B2A3F833
:105010000414B3F804146FEA41416FEA514189B2B4
:10502000A3F804146378002B40F0EA80B5F8503000
:105030009BB22B44217803EB0113002A40F0C5807A
:10504000B3F80C2492B222F4F84292B2A3F80C24E2
:10505000B3F80C246FEA42426FEA524292B2A3F8CC
:105060000C24B2E4CBB9B0F850309BB203440A78B8
:1050700003EB02130A6972BBB3F8042492B222F460
:10508000F84292B2A3F80424B3F804246FEA42422F
:105090006FEA524292B2A3F804246378002B4CD1F9
:1050A000B5F850309BB22B44227803EB02132269EF
:1050B00052BBB3F80C2492B222F4F84292B2A3F895
:1050C0000C24B3F80C246FEA42426FEA524292B2C7
:1050D000A3F80C2433E03E2A09D8510812F0010F3E
:1050E00000D001318A0292B2A3F80424D5E7510915
:1050F00012F01F0F00D101396FEAC1626FEA52420C
:1051000092B2A3F80424C8E73E2A09D8510812F045
:10511000010F00D001318A0292B2A3F80C240EE0F4
:10512000510912F01F0F00D101396FEAC1626FEA15
:10513000524292B2A3F80C2401E0012B1DD0E36986
:10514000002B3FF442AC227835F8221044F24003A1
:1051500003EA01008B4302D000287FF436AC35F817
:1051600022309BB223F4E04323F0700343F4004366
:1051700043F0C00325F8223027E4B5F850309BB245
:105180002B44227803EB0213228AA3F80C24D6E7DF
:105190000022A2610A4629E73E2A09D8510812F0E6
:1051A000010F00D00131890289B2A3F8041439E754
:1051B000510912F01F0F00D101396FEAC1616FEA86
:1051C000514189B2A3F804142CE73E2A0AD85108A9
:1051D00012F0010F00D001318A0292B2A3F80C2420
:1051E000FFF7F3BB510912F01F0F00D101396FEA2D
:1051F000C1626FEA524292B2A3F80C24FFF7E5BBFA
:10520000012B7FF4E2ABB5F850309BB22B442178F0
:1052100003EB011392B2A3F80C24FFF7D6BB0120D5
:10522000FFF7E4BB10B45C0800EB420000F58060BF
:1052300007E030F8042B0A70C2F307224A700231EB
:10524000013C002CF5D113F0010F01D003880B7045
:1052500010BC704710B5D0F8B842D0F8BC325BB182
:1052600094F80002FF2807D09B6894F80122214699
:105270009847FF2384F80032002010BD43230380A9
:1052800000487047D40B0020432303800048704738
:10529000180C00204323038000487047900B002027
:1052A0000A23038000487047940C002038B5044658
:1052B000D0F8B85201F048F8C5F80C02D4F8B8326A
:1052C0004BB1D4F8BC32DB6805F50371D5F80402A4
:1052D0009847002038BD0220FCE710B5D0F8B8226E
:1052E000D0F8C042F2B101EB810300EB8303DB692C
:1052F0004BB101EB810C04EBCC04A46BB3FBF4FCCD
:1053000004FB1C3323B10023C2F81432002010BD6B
:1053100001EB810300EB83030022DA61134601F005
:1053200003F8F3E70220F2E7F0B583B006460C4637
:10533000D0F8B87200238DF80730ADF804300B7840
:1053400013F0600527D0202D53D1CA88DAB113F0AD
:10535000800F0CD0D0F8BC329B68394660789847F3
:10536000E2883946304600F099FD002544E04B784C
:1053700087F800328B7987F80132CA88394600F005
:10538000A2FD002538E0D0F8BC329B6800224878A6
:105390009847002530E04F780A2F14D00B2F20D0EB
:1053A0001FB100F06EFA022526E090F89C32032B24
:1053B00003D000F066FA02251EE0022201A900F0E7
:1053C0006DFD3D4618E090F89C32032B03D000F0B1
:1053D00058FA022510E001220DF1070100F05EFDF0
:1053E0000AE090F89C32032B06D000F04AFA02251E
:1053F00002E000F046FA0225284603B0F0BD38B5B9
:105400000446812100F059FF0025E5620121204674
:1054100000F053FFC4F86C518221204600F04DFF8C
:105420002564D4F8B8324BB1D4F8BC325B689847E5
:10543000D4F8B80200F092FFC4F8B852002038BD8A
:1054400070B50446037CABBB4FF40073022281218C
:1054500000F028FF0125E5624FF40073022229467F
:10546000204600F01FFFC4F86C510823032282215C
:10547000204600F017FF012323644FF4077000F06B
:1054800069FF0546C4F8B80268B3D4F8BC321B689B
:1054900098470023C5F81432C5F81832267CCEB9D7
:1054A0004FF40073D5F804220121204600F044FF98
:1054B000304670BD40230222812100F0F3FE012519
:1054C000E562402302222946204600F0EBFEC4F8A4
:1054D0006C51CAE74023D5F804220121204600F090
:1054E0002BFF0026E4E70126E2E719B1C0F8BC1261
:1054F0000020704702207047D0F8B832C3F8081275
:10550000C3F8102200207047D0F8B832C3F8041254
:1055100000207047D0F8B8229AB108B5D2F81432FA
:105520000BB1012008BD0123C2F81432D2F81032A9
:1055300003639BB2D2F80822812100F0F5FE00201F
:10554000F0E702207047D0F8B82292B108B5037C8A
:1055500043B94FF40073D2F80422012100F0ECFEAD
:10556000002008BD4023D2F80422012100F0E4FE0F
:10557000F6E70220704798B108B50346D0F8B402A8
:1055800010B10020C3F8B40209B1C3F8B012012170
:1055900083F89C121A70184600F03AFE002008BDED
:1055A0000220704719B1C0F8B412002070470220E1
:1055B000704708B500F06EFE002008BD08B5D0F8B1
:1055C000B4322BB11B68984700B908BD0220FCE734
:1055D0000220FAE708B5D0F8B4325B68984700209B
:1055E00008BD38B5044600F52A75284600F035F99F
:1055F0000123C4F89432B4F8AE32C4F8983294F867
:10560000A81201F01F03012B0ED0022B11D02BB1D9
:1056100001F08001204600F058FE03E029462046B4
:1056200000F0CAFA002038BD2946204600F0F8FAFA
:10563000F8E72946204600F023FBF3E738B5044697
:105640000D4691BB1346D0F89422032A03D0052AB5
:1056500024D0084633E0D0F86011D0F8642191429C
:105660000DD9891AC0F860118A4206D98AB2194642
:10567000204600F037FC284621E092B2F7E7D0F848
:10568000B4321B691BB190F89C22032A04D0204637
:1056900000F030FC284612E09847F8E70021C0F8F7
:1056A000941200F012FE284609E0D0F8B4329B694B
:1056B00033B190F89C22032A04D19847002038BDCA
:1056C0000220FCE70220FAE738B504460D4600291F
:1056D00053D11346D0F89422022A0CD0042A00D0C9
:1056E0001AB98021204600F0F0FD94F8A032012B79
:1056F0003ED0284638BD026A416A8A421BD8C26938
:10570000B2FBF1F301FB13232BB9914203D8D0F87C
:1057100098329A421CD3D4F8B432DB681BB194F8A7
:105720009C22032A21D08021204600F0CEFD204675
:1057300000F0EBFBD9E7521A026292B2194600F070
:10574000BAFB00231A461946204600F0F5FDCCE7C7
:105750000022114600F0AFFB0021C4F898120B465E
:105760000A46204600F0E8FDBFE720469847DAE702
:10577000002384F8A0322846BCE7D0F8B4325B6935
:1057800033B190F89C22032A04D198470020B1E756
:105790000220AFE70220ADE770B5044640230022A7
:1057A000114600F07FFD0125C4F858514026C4F889
:1057B0006461334600228021204600F073FDA5611C
:1057C000666284F89C520023C4F894326360C4F883
:1057D000A432D4F8B8322BB1D4F8B4325B680021CB
:1057E00020469847002070BD01740020704790F853
:1057F0009C3280F89D32042380F89C320020704750
:1058000090F89C32042B01D00020704790F89D3214
:1058100080F89C32F8E708B590F89C32032B01D051
:10582000002008BDD0F8B432DB69002BF8D09847CF
:10583000F6E70346002002E00130C0B201331A78D7
:10584000002AF9D1704708B54B88012B00D008BD5C
:10585000C0F8A43200F04EFBF9E70B7803704B78E8
:1058600043708B78CA7803EB022343800B794A7923
:1058700003EB022383808B79CA7903EB0223C38075
:10588000704710B50446802100F01FFD002120461E
:1058900000F01BFD10BD30B583B005460C4600235B
:1058A000ADF806304A88130A013B062B00F2A480AB
:1058B000DFE803F004182CA2A2869300D0F8B032DF
:1058C0001B680DF10601007C9847BDF806201AB14F
:1058D000E388002B40F09480E388002B00F09A804E
:1058E00003B030BD037C43B9D0F8B4329B6A0DF1EC
:1058F0000600984702234370E7E7D0F8B432DB6A2A
:105900000DF10600984702234370DEE7D2B2052A64
:1059100052D8DFE802F003101D2A3744D0F8B03225
:105920005B6823B10DF10601007C9847CDE7214665
:10593000FFF7A7FFD4E7D0F8B0329B6823B10DF191
:105940000601007C9847C0E72146FFF79AFFC7E7AA
:10595000D0F8B032DB6823B10DF10601007C984726
:10596000B3E72146FFF78DFFBAE7D0F8B0321B69E5
:1059700023B10DF10601007C9847A6E72146FFF709
:1059800080FFADE7D0F8B0325B6923B10DF10601BD
:10599000007C984799E72146FFF773FFA0E7D0F80E
:1059A000B0329B6923B10DF10601007C98478CE76A
:1059B0002146FFF766FF93E72146FFF762FF8FE777
:1059C000037C33B9D0F8B4325B6B0DF10600984715
:1059D0007BE72146FFF755FF82E7037C43B9D0F808
:1059E000B4321B6B0DF106009847072343706CE738
:1059F0002146FFF746FF73E72146FFF742FF6FE7B7
:105A00009A4228BF1A46ADF806200146284600F003
:105A100045FA61E7284600F06DFA61E738B50446BB
:105A20008B88F3B9CB88E3B94B887F2B19D803F067
:105A30007F0590F89C32032B0CD080F89E522946AB
:105A400000F06AFC204600F055FA35B1022384F8D4
:105A50009C3209E0FFF715FF06E0012384F89C3231
:105A600002E02046FFF70DFF38BD000038B50446C0
:105A70000D468978284B197001290ED890F89C3270
:105A8000022B0ED0032B21D02946FFF7FAFE224B22
:105A900019782046FFF79EFD02E02946FFF7F1FE48
:105AA00038BD81B14160032380F89C32FFF786FD49
:105AB000022803D0204600F01DFAF1E729462046CF
:105AC000FFF7DFFEECE700F015FAE9E789B143687C
:105AD00099421DD0D9B2FFF77DFD0F4B1978616057
